:100000000C94B4010C94D1010C94D1010C94D10145
:100010000C94D1010C94D1010C94D1010C94D00B0F
:100020000C94D1010C94D1010C94D1010C94D10108
:100030000C94D1010C94D1010C94D1010C94D101F8
:100040000C94D1010C94D1010C94D1010C94D101E8
:100050000C94D1010C94D1010C94D1010C94D101D8
:100060000C94D1010C94D101036EDB363D9A999921
:10007000993DABAAAA2A3E000000803F084AD73B20
:100080003BCE016E84BCBFFDC12F3D6C74319ABD67
:1000900056833DDA3D00C77F11BED9E4BB4C3E918B
:1000A0006BAAAABE000000803F072C7AA5BA6CC5D7
:1000B00090DA3B9365FC8BBC53F810FD3C56928361
:1000C0004DBD879D3AB63DCBC9BF5BBE73DA0FC944
:1000D0003F05A84CCDB2D44EB93836A9020C50B960
:1000E000918688083CA6AAAA2ABE000000803F0884
:1000F000000000BE922449123EABAAAA2ABECDCC73
:10010000CC4C3E00000080BEABAAAAAA3E00000074
:1001100000BF000000803F0000000000084178D3CD
:10012000BB4387D1133D190E3CC3BD4282AD2B3E6C
:1001300068EC8276BED98FE1A93E4C80EFFFBE010C
:10014000C4FF7F3F00000000000664EC1B3C04BCC1
:10015000163E3BE5B93CC93C37C29E5A3D66049801
:10016000083EEA69AAAA3E000000803F07634236C3
:10017000B79BD8A71A39685618AEBAAB558C1D3C38
:10018000B7CC5763BD6DEDFD753EF6177231BF00FC
:100190000000803F4E414E494E495459494E46CD8C
:1001A000CCCC3D0AD7233C17B7D13877CC2B32952E
:1001B00095E6241FB14F0A000020410000C842000C
:1001C000401C4620BCBE4CCA1B0E5AAEC59D7400D6
:1001D000407A10F35A00A0724E18090010A5D4E816
:1001E0000000E87648170000E40B54020000CA9AA9
:1001F0003B000000E1F505000080969800000040FB
:10020000420F000000A0860100000010270000003F
:1002100000E803000000006400000000000A000085
:100220000000000100000000002C76D888DC674F39
:100230000823DFC1DFAE59E1B1B796E5E3E453C669
:100240003AE651997696E8E6C28426EB898C9B6261
:10025000ED407C6FFCEFBC9C9F40F2BAA56FA5F40B
:1002600090055A2AF75C936B6CF9676DC11BFCE033
:10027000E40D47FEF520E6B500D0ED902E03009486
:100280003577050080841E080000204E0A0000001B
:10029000C80C333333330F986E12831141EF8D2125
:1002A00014893BE65516CFFEE6DB18D1844B381B8C
:1002B000F77C1D901DA4BBE424203284725E228151
:1002C00000C9F124ECA1E53D2701050B6F020000F8
:1002D0000000100000060A8A020000000010000062
:1002E0000010A6020000000000011A030E03FE0227
:1002F000F20252616E6765204572726F72004E6F36
:100300007420656E6F756768206D656D2E004D6198
:1003100074682E204572726F720053796E74617822
:10032000204572726F7200507265737320616E792E
:10033000206B6579004552524F5200535445503D51
:100340000053544152543D006C6F67006174616EFC
:100350000061636F73006173696E0074616E0063A6
:100360006F730073696E000011241FBECFEFD4E0DD
:10037000DEBFCDBF11E0A0E0B1E0E2EBFDE202C0E4
:1003800005900D92A830B107D9F723E0A8E0B1E0BD
:1003900001C01D92A33BB207E1F70E947F0C0C94B1
:1003A00090160C940000FC01A381B4818581968194
:1003B000A80FB91F8C9170E081110DC087819085C5
:1003C000680F791F7087678383819481680F791F15
:1003D000FB011082089587819085A381B4810197E4
:1003E00025813681821793074CF3A80FB91F2C91F2
:1003F000A60FB71F2C93F1CFFC0185819681A381B5
:10040000B481A80FB91F2C9170E0211108C0089584
:10041000DC01A61BB70BA20FB31F4C9301962381DF
:100420003481D901A80FB91F4C914111F1CFEFCF01
:10043000E0910B01F0910C0109945B9A85E38A9598
:10044000F1F700005B9808959BB19F709BB99BB139
:10045000807F892B8BB90C941D02CF93C82F5A9A99
:100460000E9424028C2F8295807F0E9424028AE7BA
:100470008A95F1F700C0CF910895CF93DF93EC01F7
:100480008991811103C0DF91CF9108950E942D02BF
:10049000F7CFCF93DF93EC01FE018491811103C06C
:1004A000DF91CF9108950E942D022196F5CFCF9331
:1004B000C82F5A980E9424028C2F8295807F0E9418
:1004C000240280E78A95F1F7CF9108951F93CF9387
:1004D000DF93EC012A8189819881622F6150770B2B
:1004E000AB016D817E81641775077CF5911190E4F5
:1004F0008058890F0E94570210E0EB81FC81E10FC8
:10050000F11D17FDFA958081811116C02A81812F76
:10051000012E000C990B2817190609F08CF48D8117
:10052000298120589881911190E4820F890FDF91E1
:10053000CF911F910C9457020E942D021F5FDDCFB7
:1005400080E20E942D021F5FE1CF820F911190E4A3
:100550008158890F0E94570280E20E942D028981F2
:100560009881911190E48058890F0E9457021D8153
:100570008A81181B1F5F812F012E000C990B2D8182
:100580003E81281739073CF0EB81FC81E80FF91F09
:100590008081811108C089819A81890F9881911188
:1005A00090E48158C3CF0E942D02E4CF81E00E94E5
:1005B00057028FE99FE00197F1F700C0000008950E
:1005C00080EE92E090930C0180930B0188E796E017
:1005D00090930E0180930D010E94D6028EE00E943E
:1005E000570286EA93E00C94660285EF92E09093BE
:1005F0000C0180930B018EE99AE090930E01809399
:100600000D018AE992E090936E0280936D020E9440
:10061000D6028EE00E94570281E493E00E944902D4
:100620008AE892E00E943D0280EC0E9457028BE330
:1006300093E00E9449028FE692E00E943D02809181
:100640006D0290916E020C946602CF93C82F0E94A7
:10065000D6028CE00E945702EC2FF0E0EE0FFF1F55
:10066000E851FD4F859194910E94490288E192E002
:1006700090930E0180930D0180EC0E94570287E257
:1006800093E0CF910C9449024F925F926F927F92C8
:100690008F929F92AF92BF92CF92DF92EF92FF9292
:1006A0000F931F93CF93DF93CDB7DEB72A970FB683
:1006B000F894DEBF0FBECDBFE62E772E682E592EE2
:1006C0005A014090600280EA882E81E0982E6401F1
:1006D0001986F12C8C2D8819841548F18985813073
:1006E00009F0B7C18091C0019091C101A091C201F0
:1006F000B091C301F50180839183A283B38380E02D
:100700002A960FB6F894DEBF0FBECDBFDF91CF9112
:100710001F910F91FF90EF90DF90CF90BF90AF901F
:100720009F908F907F906F905F904F900895D6012B
:10073000ED916D01E13041F1E23009F445C0ED3059
:1007400008F058C0A985AA2309F483C11D821E821E
:100750001F821886398531503A8744E0349F8001E2
:100760001124D801A054BE4F2D913D914D915C9123
:1007700029833A834B835C83E550ED3010F5F0E03C
:10078000EE56F94E0C94EC11B985BF3108F05FC1FB
:10079000BF5FBA87398524E0329FF0011124E0540D
:1007A000FE4F44E0F49ED0011124A05EBE4F8D9117
:1007B0009D910D90BC91A02D80839183A283B383E2
:1007C000F3945A85598786CF59855F3108F03FC128
:1007D0005F5F5A87998584E0989FF0011124E05467
:1007E000FE4F8E2D972DA62DB52D80839183A2834C
:1007F000B383E7CFB985B23008F42BC1B150B987C4
:10080000F4E0BF9FD0011124A054BE4F2D913D9123
:100810004D915C912D833E834F8358879BCF898177
:100820009A81AB81BC81B0583A853F3108F00FC145
:10083000F801E054FE4F80839183A283B3834985FE
:100840004A87BFCF29813A814B815C816D817E814E
:100850008F8198850E94200D382F292FCB01A32F3F
:10086000B22FE2CF2D813E814F81588569817A81F7
:100870008B819C810E941F0DEFCF29813A814B8192
:100880005C816D817E818F8198850E94FB0FE4CF12
:1008900020E030E0A9016D817E818F8198850E94E2
:1008A000D60D882309F494C02D813E814F8158854F
:1008B00069817A818B819C810E94E00DCDCF698115
:1008C0007A818B819C810E94B30FC6CF2BED3FE0D4
:1008D00049E450E469817A818B819C810E94FB0FFD
:1008E00020E030E044E353E469837A838B839C8384
:1008F00069817A818B819C810E94E00D69837A8372
:100900008B839C8369817A818B819C810E94B81042
:10091000A3CF2BED3FE049E450E469817A818B81DC
:100920009C810E94FB0F20E030E044E353E46983A4
:100930007A838B839C8369817A818B819C810E94DD
:10094000E00D69837A838B839C8369817A818B81B3
:100950009C810E94DB0D80CF2BED3FE049E450E409
:1009600069817A818B819C810E94FB0F20E030E0BD
:1009700044E353E469837A838B839C8369817A811E
:100980008B819C810E94E00D69837A838B839C8399
:1009900069817A818B819C810E940A115DCF20E060
:1009A00030E040E85FEB69817A818B819C810E9415
:1009B0009E0F87FD0DC020E030E040E85FE36981D5
:1009C0007A818B819C810E94D60D18160CF043C051
:1009D00082E096CE20E030E040E85FEB69817A81EA
:1009E0008B819C810E949E0F87FDF2CF20E030E03A
:1009F00040E85FE369817A818B819C810E94D60DFA
:100A0000181634F369817A818B819C810E940E0DC6
:100A100006C069817A818B819C810E94A70D20EE9E
:100A20003EE245E652E469837A838B839C83698145
:100A30007A818B819C8129CF2D813E814F81588580
:100A400069817A818B819C810E94681005CF83E047
:100A500057CE81E055CE69817A818B819C810E943D
:100A60008C0DDDCFCF92DF92EF92FF920F931F9309
:100A7000CF93DF93CDB7DEB728970FB6F894DEBFDC
:100A80000FBECDBF2091610230916202409163029E
:100A9000509164026091690270916A0280916B02C8
:100AA00090916C020E94FB0F2091650230916602CA
:100AB00040916702509168026D837E838F8398878F
:100AC0006D817E818F8198850E94200D6B017C0154
:100AD00019821A821B821C8282E80E9457020FE050
:100AE00011E024E04EE0CD82DE82EF82F8866D8157
:100AF0007E818F8198850E94F2110E943D02AE0195
:100B00004F5F5F4FCD82DE82EF82F8866D817E81FE
:100B10008F8198850E9444038823E1F082EC0E9433
:100B2000570219E080E20E942D021150D9F785E3A7
:100B300093E00E94490228960FB6F894DEBF0FBEDC
:100B4000CDBFDF91CF911F910F91FF90EF90DF907C
:100B5000CF90089582EC0E94570289819A81AB81DF
:100B6000BC810FE011E024E04EE0BC01CD010E9409
:100B7000F2110E943D02DFCF90E08F7E8B30910515
:100B8000A9F06CF489309105B9F18A30910551F1E1
:100B900020E030E040E85FE3069791F108958E3061
:100BA0009105D9F00F97B9F50C94E00220E030E000
:100BB00040E251E46091690270916A0280916B0297
:100BC00090916C020E941F0D6093690270936A02FB
:100BD00080936B0290936C020DC020E030E040E8FF
:100BE0005FE3E8CF1092690210926A0210926B02E2
:100BF00010926C020C94320520E030E040E251E4A7
:100C00006091690270916A0280916B0290916C020E
:100C10000E94200DD9CF08951F93CF93DF93EC014D
:100C2000162F8F819885019629853A85821793071B
:100C3000B4F461E0CE010E94D301EB81FC818D818F
:100C40009E819C012F5F3F4F3E832D83E80FF91F4C
:100C50001083CE01DF91CF911F910C946602DF913A
:100C6000CF911F9108951F93CF93DF93182FD92F02
:100C7000C62F2091AD033091AE03260F311D2F5F9B
:100C80003F4F8091AF039091B0032817390764F567
:100C900061E06C0F86EA93E00E94D301E12FFD2F03
:100CA000C1502091AB033091AC03C9010196A091D2
:100CB000A903B091AA03A20FB31FCF3F69F4909389
:100CC000AC038093AB0388E28C9386EA93E0DF91D8
:100CD000CF911F910C94660224919093AC03809362
:100CE000AB032C933196DCCFDF91CF911F91089508
:100CF0002F923F924F925F926F927F928F929F922C
:100D0000AF92BF92CF92DF92EF92FF920F931F9319
:100D1000CF93DF93CDB7DEB72C970FB6F894DEBF35
:100D20000FBECDBF082F803208F04CC0E82FF0E096
:100D3000E156F94E0C94EC1161E386EA93E02C96AF
:100D40000FB6F894DEBF0FBECDBFDF91CF911F91DC
:100D50000F91FF90EF90DF90CF90BF90AF909F905A
:100D60008F907F906F905F904F903F902F900C945A
:100D70000C0664E3E2CF67E3E0CF68E2DECF62E334
:100D8000DCCF65E3DACF68E3D8CF60E3D6CF63E3A7
:100D9000D4CF66E3D2CF69E3D0CF69E2CECF109251
:100DA000AE031092AD031092AC031092AB03E0912E
:100DB000A903F091AA03108286EA93E00E946602DA
:100DC0001092A5022C960FB6F894DEBF0FBECDBFD1
:100DD000DF91CF911F910F91FF90EF90DF90CF9017
:100DE000BF90AF909F908F907F906F905F904F904B
:100DF0003F902F900895E090AB03F090AC031E1449
:100E00001F0404F7C090A903D090AA03F601EE0DC9
:100E1000FF1D31978081883709F045C08091A50278
:100E200081508093A50211E0612F86EA93E00E9431
:100E3000FC01612F70E08091AB039091AC03861BA5
:100E4000970B9093AC038093AB038091AD0390918B
:100E5000AE03861B970B9093AE038093AD03209156
:100E6000A9033091AA03820F931FDC011C9286EA2A
:100E700093E02C960FB6F894DEBF0FBECDBFDF9186
:100E8000CF911F910F91FF90EF90DF90CF90BF9087
:100E9000AF909F908F907F906F905F904F903F901A
:100EA0002F900C946602883209F0BDCF12E001C089
:100EB0001F5FF701E11BF109EC0DFD1D808190E042
:100EC0000E942712892BA1F71150AECF6EE235CFC9
:100ED00019821A821B821C8210926002382E282EE0
:100EE000182F46EAE42E42E0F42ED7019C9191118E
:100EF00040C0E32DF0E0E056FE4F11113EC23092AB
:100F00006002AE014F5F5F4F60E070E0CB010E9476
:100F100044039091A50291113DC2811190C1298194
:100F20003A814B815C812D833E834F83588786E9CC
:100F30009AE090930E0180930D0180EC0E9457027D
:100F40000FE011E024E040E16D817E818F81988582
:100F50000E94F2110E943D028091AB039091AC037C
:100F60008031910514F08FE090E080580E94570284
:100F700029CFE92FE053FF0B3A9708F0F5C0A701FE
:100F8000802F5A01DA012C914F5F5F4F222361F0CD
:100F90002E3229F4813009F4C6C281E0F2CF205309
:100FA000330B2A30310568F3812C912CC12CD12CC4
:100FB0003FC0F70171907F01FEE27F1609F4A0C0E7
:100FC00020E030E040E251E48D829E82CF82D886DC
:100FD0006D817E818F8198850E94FB0F4B016C0192
:100FE000272D30E050E040E02D833E834F8358872B
:100FF000CA01B9010E94540E9B01AC018D829E82F0
:10100000CF82D8866D817E818F8198850E94200D48
:1010100020E030E040E452E46D837E838F83988744
:101020006D817E818F8198850E941F0D4B016C011F
:10103000EA14FB0408F4BDCF412C512C20E8622EA9
:101040003FE3732EEEE1E31508F061C030926002D9
:1010500083E0F5C0D7018D917D01282F30E050E06D
:1010600040E02D833E834F835887CA01B9010E9417
:10107000540E69877A878B879C8720E030E040E2B6
:1010800051E48D829E82CF82D8866D817E818F8150
:1010900098850E94FB0F9B01AC0189858D839A8501
:1010A0009E83AB85AF83BC85B8876D817E818F8140
:1010B00098850E94200D20E030E040E452E46D83EA
:1010C0007E838F8398876D817E818F8198850E9432
:1010D0001F0D4B016C0120E030E040E251E44D82F5
:1010E0005E826F8278866D817E818F8198850E9475
:1010F000FB0F2B013C01EA14FB0408F4ABCFA2CF99
:10110000412C512C80E8682E9FE3792EF4CFF1E03A
:10111000F30DF987E32DF0E0E056FE4F21E0208348
:1011200031E0320D3A8744E0249E70011124C7015A
:10113000805E9E4F7C01242D352D462D572D8D82AE
:101140009E82CF82D8866D817E818F8198850E9414
:10115000E00DD7016D937D938D939C931397398404
:101160002A8481E07501C1CE933609F4D2C020F5FE
:101170009B3209F4D8C058F4993209F453C09A321A
:1011800009F4D4C0983209F497C091E02AC09E3582
:1011900009F4CFC0913609F4AAC09D32B1F783306B
:1011A00009F458C008F04EC0882309F453C091E0F8
:1011B0008330B9F08EE015C0983709F46FC050F451
:1011C000933709F4A8C0943709F4A7C09C36E9F610
:1011D00086E09BC0973F09F440C09D3FB1F691E087
:1011E00080E15701EFEFAE1ABE0A992309F4BACF96
:1011F000E3EFE80F402FE53020F4F0E0EE5FFE4F24
:101200004081A32DB0E0A056BE4F212F30E0205CDE
:101210003D4F111193C0E12FF0E0E05CFD4F808362
:101220001F5FA0CFA32DB0E0A056BE4FE12FF0E08E
:10123000E05CFD4F11114CC03092600281E00E94D1
:101240002503C0CD843009F477C093EF980F953013
:1012500008F09BCF91E085E0C4CFBEE1B31508F460
:10126000F5CEE32DF0E0E056FE4F21E0208334E0A0
:10127000239EF0011124E05EFE4F5BED4FE039E468
:1012800020E4852F942FA32FB22F80839183A283F4
:10129000B38333942394902F81E0A3CF4EE1431581
:1012A00008F4D4CEE32DF0E0E056FE4F52E0508338
:1012B0003394902F82E095CF1F3108F0C7CEE12FF5
:1012C000F0E0E05CFD4F83E080831F5F902F89CFCB
:1012D0008291833021F41150902F84E082CF9EE1DF
:1012E000931508F4B3CE33948D931150A3CF970187
:1012F0002F5F3F4FD70111969C917901933779F079
:10130000943779F0933609F48BE0B2E0EB0EF11CE0
:101310003CCF88E0FACF87E0F8CF89E0F6CF8AE0CB
:10132000F4CF8CE0F2CF91E08DE05BCF91E08FE0E5
:1013300058CF91E081E155CF91E03CCFF9019291F6
:1013400023EF290F6E2F5F2F253058F4E22FF0E0A6
:10135000EE5FFE4F2081421730F41F3108F45BCF5F
:1013600075CE9330D1F31150262F352FFEE1F315B2
:1013700008F46CCE33949D934CCFBEE1B31508F4C2
:1013800065CE1150A12FB0E0A05CBD4F8C91819330
:101390003394B3CD982F9D7F09F051CF0E94F50271
:1013A00011CD63E083E693E02C960FB6F894DEBF90
:1013B0000FBECDBFDF91CF911F910F91FF90EF90A6
:1013C000DF90CF90BF90AF909F908F907F906F9065
:1013D0005F904F903F902F900C9433068091AB0319
:1013E0009091AC031816190694F59C01215031090F
:1013F0003093AC032093AB03E090A903F090AA03D1
:101400002E0D3F1DD9012C91283209F030CD0297C5
:101410009093AC038093AB030091AB031091AC03AA
:10142000F701E00FF11F808190E00E942712892BC5
:1014300039F40F5F1F4F1093AC030093AB0317CD2C
:10144000015011091093AC030093AB03E5CF8091D9
:10145000AD039091AE039093AC038093AB0307CDA3
:1014600068E786EA93E00E940C068091A5028F5FF0
:101470008093A502A7CC64E086E593E095CF63E076
:101480008FE593E091CF67EF58CC6EE556CC64E0E2
:1014900081E593E089CF63E08BE593E085CF809190
:1014A000AB039091AC032091AD033091AE03821752
:1014B000930724F5E090A903F090AA038E0D9F1DD9
:1014C000FC018081883751F48091AB039091AC038B
:1014D0000196C1CF1093AC030093AB030091AB0313
:1014E0001091AC03F701E00FF11F808190E00E94A2
:1014F00027120F5F1F4F892B69F7E6CF1092AC03BD
:101500001092AB03B4CC63E088E493E04DCF64E089
:101510008CE493E049CF6BE210CC6DE20ECC6AE232
:101520000CCC6DEF0ACC3092600289CECF93C82FDD
:101530000E94E0028C2FCF910C947806CF93DF931A
:1015400000D000D0CDB7DEB720916D0230916E0291
:101550003A832983EEEFE80FEA3108F090C0F0E01B
:10156000E154F94E0C94EC1161E389819A810F905A
:101570000F900F900F90DF91CF910C940C0664E3C5
:10158000F4CF67E3F2CF62E3F0CF65E3EECF68E339
:10159000ECCF60E3EACF63E3E8CF66E3E6CF69E34D
:1015A000E4CFA981BA8118961C921E9217971696BD
:1015B0001C921E9215971396ED91FC911497108230
:1015C000CD010F900F900F900F90DF91CF910C9461
:1015D0006602E981FA8185819681181619060CF058
:1015E00057C061E0CF010E94FC01A981BA81159624
:1015F0008D919C911697019716969C938E931597B3
:1016000017968D919C911897019718969C938E939D
:10161000179713962D913C911497820F931FFC01FD
:10162000CECF6EE2A2CFA981BA8115968D919C9101
:1016300016971816190634F4019716969C938E93F4
:10164000159706C0E981FA81878190859683858305
:1016500089819A81B6CFA981BA8115968D919C9185
:10166000169717962D913C9118978217930714F4AB
:101670000196E3CFE981FA8116821582E9CF88319C
:1016800009F47AC060F48823B9F0863109F485C082
:101690000F900F900F900F90DF91CF9108958E31A2
:1016A00009F474C08F31A1F70F900F900F900F9035
:1016B000DF91CF910C94E0028AE892E00E941F1221
:1016C000609365027093660280936702909368024C
:1016D0008FE692E00E941F12F62FE72F462F572F1A
:1016E000BC01409361025093620260936302709365
:1016F000640220E030E0A901F983EA838B839C83B4
:1017000069817A818B819C810E94D60D811109C0EB
:1017100084E00F900F900F900F90DF91CF910C9479
:1017200025031092690210926A0210926B021092C5
:101730006C028CEB95E090930E0180930D018CE090
:101740000E94570280E80E94570288E50E942D02FD
:101750008DE30E942D0280EC0E94570289E50E94D1
:101760002D028DE30E942D020F900F900F900F908D
:10177000DF91CF910C94320529813A812A59324068
:1017800009F086CF6DE28AE992E0F1CE8AE992E033
:1017900090936E0280936D0214CF8FE792E0F8CFA2
:1017A0001F920F920FB60F9211242F933F934F93D6
:1017B0005F936F937F938F939F93AF93BF93CF93D9
:1017C000EF93FF9386B1409101018F7090E054E058
:1017D000459F9001112402C0880F991F2A95E2F7B6
:1017E0002091090130910A01822B932B90930A01D9
:1017F0008093090154B181E090E09C0101C0220F67
:101800004A95EAF72095252324B925B130910101A5
:1018100001C0880F3A95EAF78095822385B98091B7
:10182000010191E0980F833089F19093010124B177
:101830003091080181E090E0AC0101C0440F3A957D
:10184000EAF7242B24B925B13091080101C0880F93
:101850003A95EAF7822B85B98091080191E0980FBB
:101860008330B9F090930801FF91EF91CF91BF9130
:10187000AF919F918F917F916F915F914F913F9128
:101880002F910F900FBE0F901F901895109201018D
:10189000CECF2091090130910A0190E080E0C82F5D
:1018A0008031910511F4CFEF11C0AC014F5F5F4F54
:1018B000B901082E02C0769567950A94E2F760FF99
:1018C0001CC0809308011C9B16C0C82F10920A01EF
:1018D0001092090110920801809100018C1741F0CB
:1018E0008F3F31F4E0910D01F0910E018C2F09959D
:1018F000C0930001B9CFC05FE9CFCA01D0CF8AB190
:101900008C6F8AB98BB183708BB98FE295E70197A1
:10191000F1F700C0000080E30E9424028FE097E20C
:101920000197F1F700C000000E941D028FEC97E0C4
:101930000197F1F700C000000E941D028FEC97E0B4
:101940000197F1F700C0000080E20E9424028FE0BE
:1019500097E20197F1F700C0000088E20E94570269
:101960008CE00E94570286E00E9457020E94D60235
:1019700082E08093B00095E09093B1008093700076
:101980008EE48093B30085B1806F85B988B18063A0
:1019900088B98BB183608BB94BE050E06FED72E09A
:1019A00086EA93E00E942E124BE050E064ED72E074
:1019B0008AE992E00E942E124BE050E069EC72E05E
:1019C0008FE792E00E942E120E94E00278948091AC
:1019D00064008160809364008091640084608093DF
:1019E000640080916400806880936400809164004A
:1019F00080628093640080916400886080936400BA
:101A00008091640082608093640083B7816083BFAB
:101A100083B7817F866083BF8895FECF9F939F7732
:101A20000E948F0E0F90002042F49058A2EA2AEDF7
:101A30003FE049E450E40E94370D0C94500F505899
:101A4000BB27AA270E94370D0C94500F0E94170F36
:101A500038F00E941E0F20F039F49F3F19F426F44D
:101A60000C94D90E0EF4E095E7FB0C94D30EE92FFD
:101A70000E94750F58F3BA1762077307840795071A
:101A800020F079F4A6F50C94970F0EF4E0950B2E48
:101A9000BA2FA02D0B01B90190010C01CA01A001C0
:101AA0001124FF27591B99F0593F50F4503E68F11B
:101AB0001A16F040A22F232F342F4427585FF3CF5C
:101AC000469537952795A795F0405395C9F77EF42D
:101AD0001F16BA0B620B730B840BBAF09150A1F076
:101AE000FF0FBB1F661F771F881FC2F70EC0BA0FFC
:101AF000621F731F841F48F4879577956795B79584
:101B0000F7959E3F08F0B0CF9395880F08F099277E
:101B1000EE0F9795879508959F939F77EEE389370A
:101B20009E0728F4E8E6F0E00E94030F0CC00E9434
:101B30008F0E9058A2EA2AED3FE049EC5FE30E9445
:101B4000370D0E94500F0F9007FC90580895DF93B7
:101B5000DD27B92FBF7740E85FE316161706480761
:101B60005B0718F4D92F0E94A30F9F938F937F9345
:101B70006F930E940611ECE7F0E00E94DC0E0E94D9
:101B8000500F2F913F914F915F910E940E10DD23D6
:101B900051F09058A2EA2AED3FE049EC5FE3D0789B
:101BA0005D270E94370DDF910C94500F0E94AF0EFD
:101BB00008F481E008950E94270FE3950C94610FCB
:101BC0000E94F40D0C94500F0E941E0F58F00E94BA
:101BD000170F40F029F45F3F29F00C94D30E5111F8
:101BE0000C94980F0C94D90E0E94750F68F39923EA
:101BF000B1F3552391F3951B550BBB27AA27621709
:101C00007307840738F09F5F5F4F220F331F441F15
:101C1000AA1FA9F335D00E2E3AF0E0E832D0915049
:101C20005040E695001CCAF72BD0FE2F29D0660F36
:101C3000771F881FBB1F261737074807AB07B0E879
:101C400009F0BB0B802DBF01FF2793585F4F3AF07F
:101C50009E3F510578F00C94D30E0C94980F5F3F83
:101C6000E4F3983ED4F3869577956795B795F79505
:101C70009F5FC9F7880F911D9695879597F90895ED
:101C8000E1E0660F771F881FBB1F62177307840789
:101C9000BA0720F0621B730B840BBA0BEE1F88F798
:101CA000E0950895E89409C097FB3EF490958095DF
:101CB000709561957F4F8F4F9F4F9923A9F0F92F12
:101CC00096E9BB279395F695879577956795B79590
:101CD000F111F8CFFAF4BB0F11F460FF1BC06F5F76
:101CE0007F4F8F4F9F4F16C0882311F096E911C088
:101CF000772321F09EE8872F762F05C0662371F0A9
:101D000096E8862F70E060E02AF09A95660F771FBC
:101D1000881FDAF7880F9695879597F90895DF93CE
:101D2000CF931F930F938B01EC01E9EAF0E00E943F
:101D3000DC0E0E94500F9801AE018B01EC0160E0B7
:101D400070E080E89FE30E941F0D0E94C61098017A
:101D5000AE010F911F91CF91DF910C940E10990F4E
:101D60000008550FAA0BE0E8FEEF16161706E80765
:101D7000F907C0F012161306E407F50798F0621B86
:101D8000730B840B950B39F40A2661F0232B242B5B
:101D9000252B21F408950A2609F4A140A6958FEF7A
:101DA000811D811D089597F99F6780E870E060E0CC
:101DB00008959FEF80EC0895DF93CF931F930F93C7
:101DC000FF92EF92DF927B018C01689406C0DA2EBD
:101DD000EF010E940E10FE01E894A5912591359126
:101DE00045915591A6F3EF010E94370DFE01970131
:101DF000A801DA9469F7DF90EF90FF900F911F919F
:101E0000CF91DF9108959F938F937F936F93FF936B
:101E1000EF939B01AC010E94FB0FEF91FF910E9499
:101E2000DC0E2F913F914F915F910C94FB0F00249A
:101E30000A941616170618060906089500240A942F
:101E4000121613061406050608950C94D90E0E9466
:101E50007D0FD8F3E894E0E0BB279F57F0F02AED20
:101E60003FE049EC06C0EE0FBB0F661F771F881FCF
:101E700028F0B23A62077307840728F0B25A620B5F
:101E8000730B840BE3959A9572F7803830F49A952A
:101E9000BB0F661F771F881FD2F790480C946B11F9
:101EA000092E0394000C11F4882352F0BB0F40F468
:101EB000BF2B11F460FF04C06F5F7F4F8F4F9F4FA8
:101EC0000895EF93E0FF07C0A2EA2AED3FE049EC56
:101ED0005FEB0E94370D0E94500F0F90039401FC9E
:101EE0009058E1EDF0E00C94030F57FD9058440F2B
:101EF000551F59F05F3F71F04795880F97FB991F69
:101F000061F09F3F79F08795089512161306140625
:101F1000551FF2CF4695F1DF08C0161617061806B2
:101F2000991FF1CF86957105610508940895E8948D
:101F3000BB2766277727CB0197F908950E94AF0E3C
:101F400008F48FEF08959B01AC0160E070E080E839
:101F50009FE30C94E00D16F00C9469110C94D90ECB
:101F600068940C94D30E0E947D0FA8F39923C1F3BB
:101F7000AEF3DF93CF931F930F93FF92C92FDD270B
:101F800088232AF02197660F771F881FDAF720E051
:101F900030E040E85FEB9FE3883920F0803E38F086
:101FA00021968F770E94200DEFEEF0E004C00E9492
:101FB000200DECE1F1E00E94DC0E8B01BE01EC0192
:101FC000FB2E6F5771097595771F880B990B0E942F
:101FD000540E28E132E741E35FE30E940E10AF2D7B
:101FE0009801AE01FF900F911F91CF91DF910E9458
:101FF000370D0C94500F0E940E100C94500F0E943D
:10200000170F38F00E941E0F20F0952311F00C944A
:10201000D30E0C94D90E11240C94980F0E94750FB6
:1020200070F3959FC1F3950F50E0551F629FF0012B
:10203000729FBB27F00DB11D639FAA27F00DB11D44
:10204000AA1F649F6627B00DA11D661F829F2227CD
:10205000B00DA11D621F739FB00DA11D621F839F54
:10206000A00D611D221F749F3327A00D611D231F2A
:10207000849F600D211D822F762F6A2F11249F5778
:1020800050409AF0F1F088234AF0EE0FFF1FBB1F7B
:10209000661F771F881F91505040A9F79E3F51053A
:1020A00080F00C94D30E0C94980F5F3FE4F3983EAD
:1020B000D4F3869577956795B795F795E7959F5FE4
:1020C000C1F7FE2B880F911D9695879597F9089576
:1020D000FA01EE0FFF1F309621053105A1F16115C0
:1020E000710561F48038BFE39B0749F1689490382B
:1020F000810561F08038BFEF9B0741F099234AF5D5
:10210000FF3FE1053105210519F1E8940894E795B1
:10211000D901AA2329F4AB2FBE2FF85FD0F310C04A
:10212000FF5F70F4A695E0F7F73950F019F0FF3A29
:1021300038F49F779F930DD00F9007FC9058089527
:1021400046F00C94D90E60E070E080E89FE30895BB
:102150004FE79F775F934F933F932F930E94B30F67
:102160002F913F914F915F910E94FB0F0C9437117B
:102170009F930E94270F0F9007FCEE5F0C94610F56
:1021800019F416F40C94D90E0C9469110E947D0F69
:10219000B8F39923C9F3B6F39F57550B87FF0E94F5
:1021A00077110024A0E640EA900180585695979553
:1021B00028F4805C660F771F881F20F026173707EA
:1021C000480730F4621B730B840B202931294A2BFA
:1021D000A69517940794202531254A2758F7660FAE
:1021E000771F881F20F026173707480730F4620B47
:1021F000730B840B200D311D411DA09581F7B90192
:10220000842F9158880F9695879508959B01AC016E
:102210000C94FB0FDF93D92F0E94270FE695D795DB
:102220002AED3FE049E45FE3B33A620773078407AE
:102230009507D7953AF0A2EA49EC90680E94370DCD
:102240000E94500FE9E4F1E00E94030FDD0F13F04C
:102250000E94A30FDD0F0BF49058DF91089529F42D
:1022600016F00C94D30E0C94970F0C94D90E0E9478
:102270007D0FA8F39638A0F707F80F92E8942BE3A8
:102280003AEA48EB5FE70E9411100F920F920F920B
:102290004DB75EB70F920E94B811ECE6F1E00E94D4
:1022A000DC0E4F915F91EF91FF91E595EE1FFF1FBF
:1022B00049F0FE57E0684427EE0F441FFA95E1F716
:1022C0004195550B0E9482110F9007FE0C94A30FAD
:1022D00008959F3F31F0915020F487957795679549
:1022E000B795880F911D9695879597F90895915008
:1022F0005040660F771F881FD2F708950C94D30EB5
:102300000C9469110E947D0FD8F39923C9F3940F9F
:10231000511DA3F39150504094F059F0882332F0AE
:10232000660F771F881F91505040C1F79E3F51059F
:102330002CF7880F911D9695879597F908955F3F23
:10234000ACF0983E9CF0BB27869577956795B7953E
:1023500008F4B1609395C1F7BB0F58F711F460FF13
:10236000E8CF6F5F7F4F8F4F9F4FE3CF0C94980F55
:10237000FA01DC01AA0FBB1F9B01AC01BF5728F477
:10238000222733274427507820C0B75190F4AB2F31
:102390000024469537952795011CA395D2F300207C
:1023A00071F0220F331F441FB395DAF30ED00C9453
:1023B0001F0D61307105A0E88A07B94630F49B0112
:1023C000AC016627772788279078309621F0208304
:1023D0003183428353830895EE0FFF1F0590F491DC
:1023E000E02D0994EF920F931F93CF93DF9300D0CA
:1023F00000D00F92CDB7DEB7322F0D8354E047FDEA
:1024000054E1242F27FD2195E52E032F4D81512FD7
:1024100069837A838B839C8369817A818B819C8198
:102420000E9437128D81912F0F900F900F900F9077
:102430000F90DF91CF911F910F91EF900895662734
:1024400077270C948F1385FD0C94141680629111DC
:102450000C94141681568A51D8F70895FB01DC01BB
:1024600002C005900D9241505040D8F70895ADE05C
:10247000B0E0EDE3F2E10C944A166A01F22E402E30
:102480002E2C102F2BE3201708F41BE31F5F012FC6
:1024900027E0AE014F5F5F4F6A877B878C879D8700
:1024A0006A857B858C859D850E943C154C015980F1
:1024B000852D89700DE2813039F00BE221FC04C0DA
:1024C000022D017020FC00E2422D4071342E952D2A
:1024D000987053FE41C083E0011184E08F1598F598
:1024E000F81A31100BC0EF2CF12CA70160E270E05C
:1024F000C6010E943816CE0CDF1CF12C002319F007
:10250000F60101936F0186010D5F1F4F22FE1DC072
:102510008EE4D6018C9391E411969C9311971296B8
:102520008C93EF2CF12CA70160E270E0C8010E94AF
:102530003816E00EF11ED7011C928EEF9FEF2D96FC
:10254000E2E10C946616F12CCCCF8EE6F601808386
:1025500091E691838283E5CF52FE3EC083E0011174
:1025600084E08F1510F49F2D981B31100BC0E92EBD
:10257000F12CA70160E270E0C6010E943816CE0C73
:10258000DF1C90E0002319F0F60101936F01760142
:10259000B3E0EB0EF11C22FE14C089E4F601808347
:1025A0008EE4818386E48283092F10E0A80160E233
:1025B00070E0C7010E943816F701E00FF11F10828A
:1025C000BCCF89E6D6018C938EE611968C93119739
:1025D00086E612968C93E8CF540197FE02C0B12C88
:1025E000A12C81E090E0011102C090E080E0950113
:1025F0002F5F3F4F820F931F642C712C93012F5F2D
:102600003F4F411002C030E020E0820F931FF816C8
:10261000190609F00CF45FC0F81A31107DC023FCD4
:102620000BC0EF2CF12CA70160E270E0C6010E9404
:102630003816CE0CDF1CF12C002329F0F601019393
:102640006F0131100BC0EF2CF12CA70160E370E09B
:10265000C6010E943816CE0CDF1CF12C180D9A8191
:10266000252D207154FE03C0913309F41150111629
:10267000A4F5193008F018E0F401EA19FB0941E06B
:1026800050E04C0F5D1FE40FF51FA401411B5109E1
:102690007194619471083EE28A149B0404F14A1516
:1026A0005B05ECF48181B1E0AB1AB10886010F5FE4
:1026B0001F4FA614B704ACF0D6018C93BFEFAB1636
:1026C000BB0631F486010E5F1F4FD60111963C9375
:1026D00031966801E1CFF12CA0CF11E0CDCF80E39E
:1026E000E2CF8A149B0439F4963320F4953319F41D
:1026F000211101C081E3F6018083EF2CF12CA701A9
:1027000060E270E0C8010E9438160E0D1F1DD8014E
:102710001C9290E080E013CF011190CF9FCFA8E0F2
:10272000B0E0E5E9F3E10C9452168D839E836B01D2
:102730006115710529F0ED81FE81DB01ED93FC93BC
:10274000ED80FE8097012F5F3F4F3E832D83D701A1
:102750000C91802F90E00E9417165C01892B81F765
:102760000D32D9F5ED81FE81008197012E5F3F4F3B
:102770003E832D8311E0ED80FE80F1E0EF1AF10839
:1027800043E050E06CE971E0C7010E942016892BFC
:1027900079F5ED80FE8022E0E20EF11C45E050E08C
:1027A00067E971E0C7010E942016892B29F4ED80AA
:1027B000FE8037E0E30EF11CC114D10419F0D601FC
:1027C000ED92FC9220E030E040E85FE7112339F120
:1027D00020E030E040E85FEF22C00B3239F4AD81F9
:1027E000BE810C91F7013296FE83ED8310E0C3CFDA
:1027F00043E050E064E971E0C7010E942016892B94
:10280000D1F4C114D10409F42EC1ED81FE813296B8
:10281000D601ED93FC9320E030E040EC5FE72983A4
:102820003A834B835C8369817A818B819C81289672
:10283000EAE00C946E16F12CE12C19821A821B82AC
:102840001C82F0EDF00FFA30B8F5E12FE260812F35
:10285000887012FF0CC0811103C03FEFE31AF30A26
:10286000AD81BE810D91BE83AD831E2FEACF88233B
:1028700019F041E0E41AF108A5E0B0E029813A81BD
:102880004B815C810E943F16DC01CB01880F991FB0
:10289000AA1FBB1F9C01AD012F0F311D411D511DF2
:1028A00029833A834B835C83283939494949594103
:1028B000B8F2E12FE660D4CFFE3F29F413FD25C026
:1028C000E12FE860CDCF0F7D0534F9F4ED81FE8175
:1028D00080818D3241F410619F012E5F3F4F8181D5
:1028E00042E050E009C02D813E818B3209F455C091
:1028F0002F5F3F4F41E050E080538A3008F456C0CC
:10290000F901E41BF50BFE83ED8311FF0AC0C1142E
:10291000D10439F02D813E8121503109F6013183F6
:10292000208369817A818B819C810E94520E462F7F
:10293000572FBC014D835E836F83788713701330EC
:1029400039F4DC01CA01B0588D839E83AF83B88708
:102950002D813E814F81588529833A834B835C8347
:1029600020E030E0A9016D817E818F8198850E94F1
:10297000D60D882309F457CFF7FE70C0F194E19487
:10298000F10843EB51E05E834D83CD80DE8038E17A
:10299000C31AD10800E210E038C02E5F3F4FAD816E
:1029A000BE8111968C919CCF2D813E81F0E8AF16AF
:1029B000FCE0BF065CF4A501440F551F440F551FF2
:1029C000A40EB51EAA0CBB1CA80EB11CD9018D917A
:1029D000BE83AD8380538A3038F314FF03C0B194B3
:1029E000A194B108EA0CFB1C90CF2591359145913B
:1029F000549169817A818B819C810E94FB0F69834C
:102A00007A838B839C83E01AF10A89819A81AB8156
:102A1000BC81ED81FE81E016F1063CF73497FE8320
:102A2000ED8315950795EC15FD0579F78A2F880F2D
:102A30008B2F881F8F3F59F020E030E0A90169817A
:102A40007A818B819C810E94D60D8111ECCE82E22D
:102A500090E09093B2038093B103E5CE2BEC31E08C
:102A60003E832D8392CF80E090E0A0ECBFE7898386
:102A70009A83AB83BC83D7CE283008F027E0332776
:102A8000DA01990F311D87FD91600096610571058E
:102A900039F432602E5F3D9330E32A95E1F70895D3
:102AA0009F3F30F080387105610509F03C5F3C5F65
:102AB0003D93913008F08068911DDF93CF931F9371
:102AC0000F93FF92EF92192F987F9695E92F969585
:102AD0009695E90FFF27E75DFD4F99273327EE24F1
:102AE000FF24A701E70105900894079428F4360F06
:102AF000E71EF81E491F511D660F771F881F991F7B
:102B00000694A1F70590079428F4E70EF81E491FD4
:102B1000561FC11D770F881F991F661F0694A1F7C6
:102B20000590079428F4F80E491F561FC71FD11DA2
:102B3000880F991F661F771F0694A1F705900794C9
:102B400020F4490F561FC71FD81F990F661F771F04
:102B5000881F0694A9F784911095177041F0D695B7
:102B6000C79557954795F794E7941A95C1F7EFECF9
:102B7000F1E06894159015913591659195910590C6
:102B80007FE27395E118F10A430B560BC90BD0098C
:102B9000C0F7E10CF11E431F561FC91FD01D7EF464
:102BA000703311F48A95E6CFE894015030F0080FA5
:102BB0000AF40027021708F4202F2395022F7A33F6
:102BC00028F079E37D932A95E9F710C07D932A9543
:102BD00089F6069497956795379517951794E11898
:102BE000F10A430B560BC90BD00998F023957E913F
:102BF00073957A3308F070E37C932013B8F77E91D5
:102C000070617D9330F0839571E37D9370E32A9535
:102C1000E1F71124EF90FF900F911F91CF91DF9179
:102C2000992787FD909508959927882708959111F0
:102C30000C941416803219F089508550C8F7089505
:102C4000FB01DC014150504088F08D9181341CF033
:102C50008B350CF4805E659161341CF06B350CF49F
:102C6000605E861B611171F3990B0895881BFCCF80
:102C7000DC0101C06D9341505040E0F708950E947F
:102C80008116A59F900DB49F900DA49F800D911D5E
:102C9000112408952F923F924F925F926F927F92EC
:102CA0008F929F92AF92BF92CF92DF92EF92FF925C
:102CB0000F931F93CF93DF93CDB7DEB7CA1BDB0B08
:102CC0000FB6F894DEBF0FBECDBF09942A883988AD
:102CD00048885F846E847D848C849B84AA84B984B4
:102CE000C884DF80EE80FD800C811B81AA81B981C0
:102CF000CE0FD11D0FB6F894DEBF0FBECDBFED01D4
:102D00000895A29FB001B39FC001A39F700D811DC4
:102D10001124911DB29F700D811D1124911D0895E4
:102D2000F894FFCF0F045F0466048904AC04CF0459
:102D3000EA040905220432043D0448041C0568071E
:102D4000CD06C506BD066607CB06C306BB06FB0659
:102D5000C906C106B906CF06C706BF069C06910A7A
:102D6000870A470A3B0A8F0A830A450A300A8D0AF6
:102D70004F0A430AEE098B0A4B0A3F0AD109C90AD6
:102D80003F0B110BCF0AC70AC10AE90ACD0AC50ACF
:102D9000BF0AD10ACB0AC30AB40A3F0B3F0B3F0B51
:102DA0003F0B3F0B3F0B3F0B3F0B3F0B2B0B3F0BE7
:022DB000130B03
:082DB200FF030303020201000C
:00000001FF
