:100000000C94B4010C94D1010C94D1010C94D10145
:100010000C94D1010C94D1010C94D1010C94830B5C
:100020000C94D1010C94D1010C94D1010C94D10108
:100030000C94D1010C94D1010C94D1010C94D101F8
:100040000C94D1010C94D1010C94D1010C94D101E8
:100050000C94D1010C94D1010C94D1010C94D101D8
:100060000C94D1010C94D101036EDB363D9A999921
:10007000993DABAAAA2A3E000000803F084AD73B20
:100080003BCE016E84BCBFFDC12F3D6C74319ABD67
:1000900056833DDA3D00C77F11BED9E4BB4C3E918B
:1000A0006BAAAABE000000803F072C7AA5BA6CC5D7
:1000B00090DA3B9365FC8BBC53F810FD3C56928361
:1000C0004DBD879D3AB63DCBC9BF5BBE73DA0FC944
:1000D0003F05A84CCDB2D44EB93836A9020C50B960
:1000E000918688083CA6AAAA2ABE000000803F0884
:1000F000000000BE922449123EABAAAA2ABECDCC73
:10010000CC4C3E00000080BEABAAAAAA3E00000074
:1001100000BF000000803F0000000000084178D3CD
:10012000BB4387D1133D190E3CC3BD4282AD2B3E6C
:1001300068EC8276BED98FE1A93E4C80EFFFBE010C
:10014000C4FF7F3F00000000000664EC1B3C04BCC1
:10015000163E3BE5B93CC93C37C29E5A3D66049801
:10016000083EEA69AAAA3E000000803F07634236C3
:10017000B79BD8A71A39685618AEBAAB558C1D3C38
:10018000B7CC5763BD6DEDFD753EF6177231BF00FC
:100190000000803F4E414E494E495459494E46CD8C
:1001A000CCCC3D0AD7233C17B7D13877CC2B32952E
:1001B00095E6241FB14F0A000020410000C842000C
:1001C000401C4620BCBE4CCA1B0E5AAEC59D7400D6
:1001D000407A10F35A00A0724E18090010A5D4E816
:1001E0000000E87648170000E40B54020000CA9AA9
:1001F0003B000000E1F505000080969800000040FB
:10020000420F000000A0860100000010270000003F
:1002100000E803000000006400000000000A000085
:100220000000000100000000002C76D888DC674F39
:100230000823DFC1DFAE59E1B1B796E5E3E453C669
:100240003AE651997696E8E6C28426EB898C9B6261
:10025000ED407C6FFCEFBC9C9F40F2BAA56FA5F40B
:1002600090055A2AF75C936B6CF9676DC11BFCE033
:10027000E40D47FEF520E6B500D0ED902E03009486
:100280003577050080841E080000204E0A0000001B
:10029000C80C333333330F986E12831141EF8D2125
:1002A00014893BE65516CFFEE6DB18D1844B381B8C
:1002B000F77C1D901DA4BBE424203284725E228151
:1002C00000C9F124ECA1E53D2701050B6F020000F8
:1002D0000000100000060A8A020000000010000062
:1002E0000010A6020000000000011A030E03FE0227
:1002F000F20252616E6765204572726F72004E6F36
:100300007420656E6F756768206D656D2E004D6198
:1003100074682E204572726F720053796E74617822
:10032000204572726F7200507265737320616E792E
:10033000206B6579004552524F5200535445503D51
:100340000053544152543D006C6F67006174616EFC
:100350000061636F73006173696E0074616E0063A6
:100360006F730073696E000011241FBECFEFD4E0DD
:10037000DEBFCDBF11E0A0E0B1E0E2E2FCE202C0EE
:1003800005900D92A830B107D9F723E0A8E0B1E0BD
:1003900001C01D92A33BB207E1F70E94320C0C94FE
:1003A000C8150C940000FC01A381B481858196815D
:1003B000A80FB91F8C9170E081110DC087819085C5
:1003C000680F791F7087678383819481680F791F15
:1003D000FB011082089587819085A381B4810197E4
:1003E00025813681821793074CF3A80FB91F2C91F2
:1003F000A60FB71F2C93F1CFFC0185819681A381B5
:10040000B481A80FB91F2C9170E0211108C0089584
:10041000DC01A61BB70BA20FB31F4C9301962381DF
:100420003481D901A80FB91F4C914111F1CFEFCF01
:10043000E0910B01F0910C0109945B9A85E38A9598
:10044000F1F700005B9808959BB19F709BB99BB139
:10045000807F892B8BB90C941D02CF93C82F5A9A99
:100460000E9424028C2F8295807F0E9424028AE7BA
:100470008A95F1F700C0CF910895CF93DF93EC01F7
:100480008991811103C0DF91CF9108950E942D02BF
:10049000F7CFCF93DF93EC01FE018491811103C06C
:1004A000DF91CF9108950E942D022196F5CFCF9331
:1004B000C82F5A980E9424028C2F8295807F0E9418
:1004C000240280E78A95F1F7CF9108951F93CF9387
:1004D000DF93EC012A8189819881622F6150770B2B
:1004E000AB016D817E81641775077CF5911190E4F5
:1004F0008058890F0E94570210E0EB81FC81E10FC8
:10050000F11D17FDFA958081811116C02A81812F76
:10051000012E000C990B2817190609F08CF48D8117
:10052000298120589881911190E4820F890FDF91E1
:10053000CF911F910C9457020E942D021F5FDDCFB7
:1005400080E20E942D021F5FE1CF820F911190E4A3
:100550008158890F0E94570280E20E942D028981F2
:100560009881911190E48058890F0E9457021D8153
:100570008A81181B1F5F812F012E000C990B2D8182
:100580003E81281739073CF0EB81FC81E80FF91F09
:100590008081811108C089819A81890F9881911188
:1005A00090E48158C3CF0E942D02E4CF81E00E94E5
:1005B00057028FE99FE00197F1F700C0000008950E
:1005C00080EE92E090930C0180930B0188E796E017
:1005D00090930E0180930D010E94D6028EE00E943E
:1005E000570286EA93E00C94660285EF92E09093BE
:1005F0000C0180930B0181E59AE090930E018093AA
:100600000D018AE992E090936E0280936D020E9440
:10061000D6028EE00E94570281E493E00E944902D4
:100620008AE892E00E943D0280EC0E9457028BE330
:1006300093E00E9449028FE692E00E943D02809181
:100640006D0290916E020C946602CF93C82F0E94A7
:10065000D6028CE00E945702EC2FF0E0EE0FFF1F55
:10066000E851FD4F859194910E94490288E192E002
:1006700090930E0180930D0180EC0E94570287E257
:1006800093E0CF910C9449024F925F926F927F92C8
:100690008F929F92AF92BF92CF92DF92EF92FF9292
:1006A0000F931F93CF93DF93CDB7DEB72A970FB683
:1006B000F894DEBF0FBECDBFE62E772E682E592EE2
:1006C0005A014090600280EA882E81E0982E6401F1
:1006D0001986F12C8C2D8819841548F18985813073
:1006E00009F0B7C18091C0019091C101A091C201F0
:1006F000B091C301F50180839183A283B38380E02D
:100700002A960FB6F894DEBF0FBECDBFDF91CF9112
:100710001F910F91FF90EF90DF90CF90BF90AF901F
:100720009F908F907F906F905F904F900895D6012B
:10073000ED916D01E13041F1E23009F445C0ED3059
:1007400008F058C0A985AA2309F483C11D821E821E
:100750001F821886398531503A8744E0349F8001E2
:100760001124D801A054BE4F2D913D914D915C9123
:1007700029833A834B835C83E550ED3010F5F0E03C
:10078000E653FA4E0C949F11B985BF3108F05FC152
:10079000BF5FBA87398524E0329FF0011124E0540D
:1007A000FE4F44E0F49ED0011124A05EBE4F8D9117
:1007B0009D910D90BC91A02D80839183A283B383E2
:1007C000F3945A85598786CF59855F3108F03FC128
:1007D0005F5F5A87998584E0989FF0011124E05467
:1007E000FE4F8E2D972DA62DB52D80839183A2834C
:1007F000B383E7CFB985B23008F42BC1B150B987C4
:10080000F4E0BF9FD0011124A054BE4F2D913D9123
:100810004D915C912D833E834F8358879BCF898177
:100820009A81AB81BC81B0583A853F3108F00FC145
:10083000F801E054FE4F80839183A283B3834985FE
:100840004A87BFCF29813A814B815C816D817E814E
:100850008F8198850E94D30C382F292FCB01A32F8D
:10086000B22FE2CF2D813E814F81588569817A81F7
:100870008B819C810E94D20CEFCF29813A814B81E0
:100880005C816D817E818F8198850E94AE0FE4CF5F
:1008900020E030E0A9016D817E818F8198850E94E2
:1008A000890D882309F494C02D813E814F8158859C
:1008B00069817A818B819C810E94930DCDCF698162
:1008C0007A818B819C810E94660FC6CF2BED3FE021
:1008D00049E450E469817A818B819C810E94AE0F4A
:1008E00020E030E044E353E469837A838B839C8384
:1008F00069817A818B819C810E94930D69837A83BF
:100900008B839C8369817A818B819C810E946B108F
:10091000A3CF2BED3FE049E450E469817A818B81DC
:100920009C810E94AE0F20E030E044E353E46983F1
:100930007A838B839C8369817A818B819C810E94DD
:10094000930D69837A838B839C8369817A818B8100
:100950009C810E948E0D80CF2BED3FE049E450E456
:1009600069817A818B819C810E94AE0F20E030E00A
:1009700044E353E469837A838B839C8369817A811E
:100980008B819C810E94930D69837A838B839C83E6
:1009900069817A818B819C810E94BD105DCF20E0AE
:1009A00030E040E85FEB69817A818B819C810E9415
:1009B000510F87FD0DC020E030E040E85FE3698122
:1009C0007A818B819C810E94890D18160CF043C09E
:1009D00082E096CE20E030E040E85FEB69817A81EA
:1009E0008B819C810E94510F87FDF2CF20E030E087
:1009F00040E85FE369817A818B819C810E94890D47
:100A0000181634F369817A818B819C810E94C10C14
:100A100006C069817A818B819C810E945A0D20EEEB
:100A20003EE245E652E469837A838B839C83698145
:100A30007A818B819C8129CF2D813E814F81588580
:100A400069817A818B819C810E941B1005CF83E094
:100A500057CE81E055CE69817A818B819C810E943D
:100A60003F0DDDCFCF92DF92EF92FF920F931F9356
:100A7000CF93DF93CDB7DEB728970FB6F894DEBFDC
:100A80000FBECDBF2091610230916202409163029E
:100A9000509164026091690270916A0280916B02C8
:100AA00090916C020E94AE0F209165023091660217
:100AB00040916702509168026D837E838F8398878F
:100AC0006D817E818F8198850E94D30C6B017C01A2
:100AD00019821A821B821C8282E80E9457020FE050
:100AE00011E024E04EE0CD82DE82EF82F8866D8157
:100AF0007E818F8198850E94A5110E943D02AE01E2
:100B00004F5F5F4FCD82DE82EF82F8866D817E81FE
:100B10008F8198850E9444038823E1F082EC0E9433
:100B2000570219E080E20E942D021150D9F785E3A7
:100B300093E00E94490228960FB6F894DEBF0FBEDC
:100B4000CDBFDF91CF911F910F91FF90EF90DF907C
:100B5000CF90089582EC0E94570289819A81AB81DF
:100B6000BC810FE011E024E04EE0BC01CD010E9409
:100B7000A5110E943D02DFCF90E08F7E8B30910562
:100B8000A9F06CF489309105B9F18A30910551F1E1
:100B900020E030E040E85FE3069791F108958E3061
:100BA0009105D9F00F97B9F50C94E00220E030E000
:100BB00040E251E46091690270916A0280916B0297
:100BC00090916C020E94D20C6093690270936A0249
:100BD00080936B0290936C020DC020E030E040E8FF
:100BE0005FE3E8CF1092690210926A0210926B02E2
:100BF00010926C020C94320520E030E040E251E4A7
:100C00006091690270916A0280916B0290916C020E
:100C10000E94D30CD9CF08951F93CF93DF93EC019B
:100C2000162F8F819885019629853A85821793071B
:100C3000B4F461E0CE010E94D301EB81FC818D818F
:100C40009E819C012F5F3F4F3E832D83E80FF91F4C
:100C50001083CE01DF91CF911F910C946602DF913A
:100C6000CF911F9108951F93CF93DF93182FD92F02
:100C7000C62F2091AD033091AE03260F311D2F5F9B
:100C80003F4F8091AF039091B0032817390764F567
:100C900061E06C0F86EA93E00E94D301E12FFD2F03
:100CA000C1502091AB033091AC03C9010196A091D2
:100CB000A903B091AA03A20FB31FCF3F69F4909389
:100CC000AC038093AB0388E28C9386EA93E0DF91D8
:100CD000CF911F910C94660224919093AC03809362
:100CE000AB032C933196DCCFDF91CF911F91089508
:100CF0002F923F924F925F926F927F928F929F922C
:100D0000AF92BF92CF92DF92EF92FF920F931F9319
:100D1000CF93DF93CDB7DEB72C970FB6F894DEBF35
:100D20000FBECDBFD82E2FE12817A8F1E82FF0E095
:100D3000E952FA4E0C949F1161E386EA93E00E9417
:100D40000C0629C064E3F9CF67E3F7CF68E2F5CF7B
:100D500062E3F3CF65E3F1CF68E3EFCF60E3EDCF7C
:100D600063E3EBCF66E3E9CF69E3E7CF69E2E5CF81
:100D70001092AE031092AD031092AC031092AB032D
:100D8000E091A903F091AA03108286EA93E00E9401
:100D900066021092A5022C960FB6F894DEBF0FBE25
:100DA000CDBFDF91CF911F910F91FF90EF90DF901A
:100DB000CF90BF90AF909F908F907F906F905F90FB
:100DC0004F903F902F900895E090AB03F090AC03CC
:100DD0001E141F0404F7C090A903D090AA03F601C3
:100DE000EE0DFF1D31978081883771F58091A50246
:100DF00081508093A50211E0612F86EA93E00E9462
:100E0000FC01612F70E08091AB039091AC03861BD5
:100E1000970B9093AC038093AB038091AD039091BB
:100E2000AE03861B970B9093AE038093AD03209186
:100E3000A9033091AA03820F931FDC011C9286EA5A
:100E400093E00E946602A7CF8832A9F612E001C0A3
:100E50001F5FF701E11BF109EC0DFD1D808190E0A2
:100E60000E94CB11892BA1F71150C6CF6EE265CF3E
:100E700019821A821B821C8210926002182F882EFF
:100E8000082F96EAE92E92E0F92EF7019081911150
:100E900040C0E12FF0E0E056FE4F011139C210933F
:100EA0006002AE014F5F5F4F60E070E0CB010E94D7
:100EB00044039091A502911137C2811196C12981F5
:100EC0003A814B815C812D833E834F83588789E42F
:100ED0009AE090930E0180930D0180EC0E945702DE
:100EE0000FE011E024E040E16D817E818F819885E3
:100EF0000E94A5110E943D028091AB039091AC032A
:100F00008031910514F08FE090E080580E945702E4
:100F100042CFE92FE053FF0B3A9708F0FAC0A70140
:100F20008D2D3A01DA012C914F5F5F4F222361F042
:100F30002E3229F4813009F4A9C281E0F2CF205386
:100F4000330B2A30310568F3912CA12CB12CC12C24
:100F500043C0F70151907F01FEE25F1609F4A6C07D
:100F600020E030E040E251E49D82AE82BF82C8863C
:100F70006D817E818F8198850E94AE0F962EA72E5F
:100F8000B82EC92E252D30E050E040E02D833E8361
:100F90004F835887CA01B9010E94070E9B01AC011B
:100FA0009D82AE82BF82C8866D817E818F81988549
:100FB0000E94D30C20E030E040E452E46D837E8355
:100FC0008F8398876D817E818F8198850E94D20C56
:100FD000962EA72EB82EC92EE614F70408F4B9CF22
:100FE000412C512C30E839874FE34A871F3108F4F0
:100FF00064C01093600283E0F8C0D7018D917D0139
:10100000282F30E050E040E02D833E834F83588707
:10101000CA01B9010E94070E362E272E8B879C87A6
:1010200020E030E040E251E49D82AE82BF82C8867B
:101030006D817E818F8198850E94AE0F9B01AC01EE
:101040003D822E828B858F839C8598876D817E81E2
:101050008F8198850E94D30C20E030E040E452E478
:101060006D837E838F8398876D817E818F81988544
:101070000E94D20C962EA72EB82EC92E20E030E06A
:1010800040E251E44D825E82A985AF83BA85B8877C
:101090006D817E818F8198850E94AE0F2B0189879B
:1010A0009A87E614F70408F4A8CFA0CF412C512C5E
:1010B000E0E8E987FFE3FA87F4CF22242394210EA6
:1010C000E12FF0E0E056FE4F21E0208333243394FB
:1010D000380C34E0839E70011124A701405E5E4FFE
:1010E0007A01920149855A859D82AE82BF82C88667
:1010F0006D817E818F8198850E94930DD7016D93BC
:101100007D938D939C931397122D832C81E0730113
:10111000BCCE933609F4CCC020F59B3209F4D2C082
:1011200058F4993209F454C09A3209F4CEC0983276
:1011300009F492C091E02AC09E3509F4C9C09136E5
:1011400009F4A5C09D32B1F7833009F459C008F005
:101150004FC0882309F454C091E08330B9F08EE089
:1011600015C0983709F46BC050F4933709F4A2C046
:10117000943709F4A1C09C36E9F686E095C0973F04
:1011800009F441C09D3FB1F691E080E137012FEFB6
:10119000621A720A992309F4BACFE3EFE80F4D2DD2
:1011A000E53020F4F0E0EE5FFE4F4081A12FB0E08B
:1011B000BD0160567E4FE02FF0E0E05CFD4F011175
:1011C0008CC0E02FF0E0E05CFD4F80830F5F9FCF8D
:1011D000E12FF0E0E056FE4FA02FB0E0A05CBD4F45
:1011E000011147C01093600281E00E942503D3CD16
:1011F000843009F470C093EF980F953008F09ACFBF
:1012000091E085E0C3CF1F3108F0F3CEE12FF0E08D
:10121000E056FE4FB1E0B08324E0829EF00111243D
:10122000E05EFE4F8BED9FE0A9E4B0E48083918304
:10123000A283B3831F5F83949D2D81E0A7CF1F31CD
:1012400008F0D7CEE12FF0E0E056FE4F92E0908319
:101250001F5F9D2D82E09ACF0F3108F0CACEE02F9C
:10126000F0E0E05CFD4FA3E0A0830F5F9D2D83E0E5
:101270008DCF8E91833021F401509D2D84E086CF57
:101280001F3108F0B6CE819301501F5FA9CF97019F
:101290002F5F3F4FF70191817901933779F09437B0
:1012A00079F0933609F48BE0F2E0EF0EF11C42CFB7
:1012B00088E0FACF87E0F8CF89E0F6CF8AE0F4CF74
:1012C0008CE0F2CF91E08DE061CF91E08FE05ECFD6
:1012D00091E081E15BCF91E042CF929123EF290F22
:1012E000253058F430E02E5F3E4FD9012C91421743
:1012F00030F40F3108F465CF7CCE9330D1F3015038
:101300001F3108F076CE1F5FDB019D93BD0157CFE3
:101310001F3108F06ECE0150A02FB0E0A05CBD4F91
:101320008C9181931F5FB9CD982F9D7F09F05DCF80
:101330000E94F50230CD63E083E693E00E9433061D
:101340002ACD8091AB039091AC031816190694F541
:101350009C01215031093093AC032093AB03E09002
:10136000A903F090AA032E0D3F1DD9012C9128321C
:1013700009F065CD02979093AC038093AB03009185
:10138000AB031091AC03F701E00FF11F808190E0F7
:101390000E94CB11892B39F40F5F1F4F1093AC03C0
:1013A0000093AB034CCD015011091093AC03009393
:1013B000AB03E5CF8091AD039091AE039093AC0366
:1013C0008093AB033CCD68E786EA93E00E940C066D
:1013D0008091A5028F5F8093A502DDCC64E086E555
:1013E00093E0ACCF63E08FE593E0A8CF67EFA5CCA7
:1013F0006EE5A3CC64E081E593E0A0CF63E08BE5EC
:1014000093E09CCF8091AB039091AC032091AD030E
:101410003091AE038217930724F5E090A903F09072
:10142000AA038E0D9F1DFC018081883751F48091A5
:10143000AB039091AC030196C1CF1093AC03009322
:10144000AB030091AB031091AC03F701E00FF11F68
:10145000808190E00E94CB110F5F1F4F892B69F7AD
:10146000E6CF1092AC031092AB03E9CC63E088E4C2
:1014700093E064CF64E08CE493E060CF6BE25DCCFA
:101480006DE25BCC6AE259CC6DEF57CC10936002F1
:10149000ACCECF93C82F0E94E0028C2FCF910C943A
:1014A0007806CF93DF9300D000D0CDB7DEB7209180
:1014B0006D0230916E023A832983EEEFE80FEA3134
:1014C00008F090C0F0E0E950FA4E0C949F1161E3EF
:1014D00089819A810F900F900F900F90DF91CF919B
:1014E0000C940C0664E3F4CF67E3F2CF62E3F0CF31
:1014F00065E3EECF68E3ECCF60E3EACF63E3E8CFE8
:1015000066E3E6CF69E3E4CFA981BA8118961C921D
:101510001E92179716961C921E9215971396ED9190
:10152000FC9114971082CD010F900F900F900F90A7
:10153000DF91CF910C946602E981FA8185819681D1
:10154000181619060CF057C061E0CF010E94FC018B
:10155000A981BA8115968D919C911697019716963F
:101560009C938E93159717968D919C911897019740
:1015700018969C938E93179713962D913C911497E0
:10158000820F931FFC01CECF6EE2A2CFA981BA8158
:1015900015968D919C9116971816190634F401979B
:1015A00016969C938E93159706C0E981FA818781E0
:1015B00090859683858389819A81B6CFA981BA81E6
:1015C00015968D919C91169717962D913C91189791
:1015D0008217930714F40196E3CFE981FA8116820A
:1015E0001582E9CF883109F47AC060F48823B9F014
:1015F000863109F485C00F900F900F900F90DF9106
:10160000CF9108958E3109F474C08F31A1F70F90F6
:101610000F900F900F90DF91CF910C94E0028AE829
:1016200092E00E94C31160936502709366028093FA
:101630006702909368028FE692E00E94C311F62F32
:10164000E72F462F572FBC0140936102509362024F
:10165000609363027093640220E030E0A901F98393
:10166000EA838B839C8369817A818B819C810E9430
:10167000890D811109C084E00F900F900F900F9099
:10168000DF91CF910C9425031092690210926A02A7
:1016900010926B0210926C028CEB95E090930E010D
:1016A00080930D018CE00E94570280E80E9457024F
:1016B00088E50E942D028DE30E942D0280EC0E949D
:1016C000570289E50E942D028DE30E942D020F90A2
:1016D0000F900F900F90DF91CF910C9432052981DC
:1016E0003A812A59324009F086CF6DE28AE992E0C8
:1016F000F1CE8AE992E090936E0280936D0214CF4E
:101700008FE792E0F8CF1F920F920FB60F9211243D
:101710002F933F934F935F936F937F938F939F93F9
:10172000AF93BF93CF93EF93FF9386B140910101A5
:101730008F7090E054E0459F9001112402C0880F03
:10174000991F2A95E2F72091090130910A01822B15
:10175000932B90930A018093090154B181E090E0AA
:101760009C0101C0220F4A95EAF72095252324B950
:1017700025B13091010101C0880F3A95EAF78095B3
:10178000822385B98091010191E0980F833089F11E
:101790009093010124B13091080181E090E0AC0107
:1017A00001C0440F3A95EAF7242B24B925B13091B2
:1017B000080101C0880F3A95EAF7822B85B980911C
:1017C000080191E0980F8330B9F090930801FF91E0
:1017D000EF91CF91BF91AF919F918F917F916F9139
:1017E0005F914F913F912F910F900FBE0F901F90DF
:1017F000189510920101CECF2091090130910A0174
:1018000090E080E0C82F8031910511F4CFEF11C036
:10181000AC014F5F5F4FB901082E02C07695679506
:101820000A94E2F760FF1CC0809308011C9B16C05D
:10183000C82F10920A01109209011092080180919C
:1018400000018C1741F08F3F31F4E0910D01F091D0
:101850000E018C2F0995C0930001B9CFC05FE9CF6D
:10186000CA01D0CF8AB18C6F8AB98BB183708BB922
:101870008FE295E70197F1F700C0000080E30E9436
:1018800024028FE097E20197F1F700C000000E9468
:101890001D028FEC97E00197F1F700C000000E9455
:1018A0001D028FEC97E00197F1F700C0000080E285
:1018B0000E9424028FE097E20197F1F700C0000038
:1018C00088E20E9457028CE00E94570286E00E9444
:1018D00057020E94D60282E08093B00095E0909378
:1018E000B100809370008EE48093B30085B1806F67
:1018F00085B988B1806388B98BB183608BB94BE0BF
:1019000050E06FED72E086EA93E00E94D2114BE066
:1019100050E064ED72E08AE992E00E94D2114BE05F
:1019200050E069EC72E08FE792E00E94D2110E94D1
:10193000E0027894809164008160809364008091DB
:101940006400846080936400809164008068809368
:1019500064008091640080628093640080916400E0
:10196000886080936400809164008260809364004A
:1019700083B7816083BF83B7817F866083BF88958B
:10198000FECF9F939F770E94420E0F90002042F45B
:101990009058A2EA2AED3FE049E450E40E94EA0CA4
:1019A0000C94030F5058BB27AA270E94EA0C0C94F2
:1019B000030F0E94CA0E38F00E94D10E20F039F4B5
:1019C0009F3F19F426F40C948C0E0EF4E095E7FB7F
:1019D0000C94860EE92F0E94280F58F3BA1762075D
:1019E00073078407950720F079F4A6F50C944A0F45
:1019F0000EF4E0950B2EBA2FA02D0B01B90190012A
:101A00000C01CA01A0011124FF27591B99F0593F6D
:101A100050F4503E68F11A16F040A22F232F342FB5
:101A20004427585FF3CF469537952795A795F04003
:101A30005395C9F77EF41F16BA0B620B730B840B18
:101A4000BAF09150A1F0FF0FBB1F661F771F881FD0
:101A5000C2F70EC0BA0F621F731F841F48F4879528
:101A600077956795B795F7959E3F08F0B0CF93951A
:101A7000880F08F09927EE0F9795879508959F9303
:101A80009F77EEE389379E0728F4E8E6F0E00E94AE
:101A9000B60E0CC00E94420E9058A2EA2AED3FE01A
:101AA00049EC5FE30E94EA0C0E94030F0F9007FCD1
:101AB00090580895DF93DD27B92FBF7740E85FE3A3
:101AC0001616170648075B0718F4D92F0E94560F01
:101AD0009F938F937F936F930E94B910ECE7F0E090
:101AE0000E948F0E0E94030F2F913F914F915F91A3
:101AF0000E94C10FDD2351F09058A2EA2AED3FE089
:101B000049EC5FE3D0785D270E94EA0CDF910C94EA
:101B1000030F0E94620E08F481E008950E94DA0E1D
:101B2000E3950C94140F0E94A70D0C94030F0E94D0
:101B3000D10E58F00E94CA0E40F029F45F3F29F000
:101B40000C94860E51110C944B0F0C948C0E0E9429
:101B5000280F68F39923B1F3552391F3951B550B87
:101B6000BB27AA2762177307840738F09F5F5F4F70
:101B7000220F331F441FAA1FA9F335D00E2E3AF0AF
:101B8000E0E832D091505040E695001CCAF72BD0C7
:101B9000FE2F29D0660F771F881FBB1F2617370718
:101BA0004807AB07B0E809F0BB0B802DBF01FF274A
:101BB00093585F4F3AF09E3F510578F00C94860E93
:101BC0000C944B0F5F3FE4F3983ED4F386957795E2
:101BD0006795B795F7959F5FC9F7880F911D969503
:101BE000879597F90895E1E0660F771F881FBB1F5F
:101BF000621773078407BA0720F0621B730B840B0C
:101C0000BA0BEE1F88F7E0950895E89409C097FB9A
:101C10003EF490958095709561957F4F8F4F9F4FC3
:101C20009923A9F0F92F96E9BB279395F695879507
:101C300077956795B795F111F8CFFAF4BB0F11F4CA
:101C400060FF1BC06F5F7F4F8F4F9F4F16C0882371
:101C500011F096E911C0772321F09EE8872F762FA7
:101C600005C0662371F096E8862F70E060E02AF0E8
:101C70009A95660F771F881FDAF7880F96958795D4
:101C800097F90895DF93CF931F930F938B01EC0186
:101C9000E9EAF0E00E948F0E0E94030F9801AE0166
:101CA0008B01EC0160E070E080E89FE30E94D20CC1
:101CB0000E9479109801AE010F911F91CF91DF9191
:101CC0000C94C10F990F0008550FAA0BE0E8FEEF26
:101CD00016161706E807F907C0F012161306E407F0
:101CE000F50798F0621B730B840B950B39F40A26E9
:101CF00061F0232B242B252B21F408950A2609F4C7
:101D0000A140A6958FEF811D811D089597F99F67CA
:101D100080E870E060E008959FEF80EC0895DF9325
:101D2000CF931F930F93FF92EF92DF927B018C0171
:101D3000689406C0DA2EEF010E94C10FFE01E894FC
:101D4000A5912591359145915591A6F3EF010E94FA
:101D5000EA0CFE019701A801DA9469F7DF90EF9091
:101D6000FF900F911F91CF91DF9108959F938F93D3
:101D70007F936F93FF93EF939B01AC010E94AE0F93
:101D8000EF91FF910E948F0E2F913F914F915F91A4
:101D90000C94AE0F00240A941616170618060906AE
:101DA000089500240A9412161306140605060895D1
:101DB0000C948C0E0E94300FD8F3E894E0E0BB271F
:101DC0009F57F0F02AED3FE049EC06C0EE0FBB0F45
:101DD000661F771F881F28F0B23A620773078407CF
:101DE00028F0B25A620B730B840BE3959A9572F745
:101DF000803830F49A95BB0F661F771F881FD2F783
:101E000090480C941E11092E0394000C11F48823A1
:101E100052F0BB0F40F4BF2B11F460FF04C06F5FA2
:101E20007F4F8F4F9F4F0895EF93E0FF07C0A2EAC7
:101E30002AED3FE049EC5FEB0E94EA0C0E94030FA1
:101E40000F90039401FC9058E1EDF0E00C94B60E75
:101E500057FD9058440F551F59F05F3F71F047955B
:101E6000880F97FB991F61F09F3F79F08795089540
:101E7000121613061406551FF2CF4695F1DF08C05F
:101E8000161617061806991FF1CF8695710561057C
:101E900008940895E894BB2766277727CB0197F924
:101EA00008950E94620E08F48FEF08959B01AC0123
:101EB00060E070E080E89FE30C94930D16F00C94C2
:101EC0001C110C948C0E68940C94860E0E94300F9A
:101ED000A8F39923C1F3AEF3DF93CF931F930F932E
:101EE000FF92C92FDD2788232AF02197660F771FDD
:101EF000881FDAF720E030E040E85FEB9FE38839A5
:101F000020F0803E38F021968F770E94D30CEFEEC0
:101F1000F0E004C00E94D30CECE1F1E00E948F0ECF
:101F20008B01BE01EC01FB2E6F5771097595771F70
:101F3000880B990B0E94070E28E132E741E35FE32B
:101F40000E94C10FAF2D9801AE01FF900F911F911C
:101F5000CF91DF910E94EA0C0C94030F0E94C10FF5
:101F60000C94030F0E94CA0E38F00E94D10E20F08C
:101F7000952311F00C94860E0C948C0E11240C9465
:101F80004B0F0E94280F70F3959FC1F3950F50E0FF
:101F9000551F629FF001729FBB27F00DB11D639F1B
:101FA000AA27F00DB11DAA1F649F6627B00DA11DC1
:101FB000661F829F2227B00DA11D621F739FB00D67
:101FC000A11D621F839FA00D611D221F749F3327D7
:101FD000A00D611D231F849F600D211D822F762F70
:101FE0006A2F11249F5750409AF0F1F088234AF04D
:101FF000EE0FFF1FBB1F661F771F881F91505040B9
:10200000A9F79E3F510580F00C94860E0C944B0F5F
:102010005F3FE4F3983ED4F3869577956795B7953F
:10202000F795E7959F5FC1F7FE2B880F911D969559
:10203000879597F90895FA01EE0FFF1F3096210555
:102040003105A1F16115710561F48038BFE39B078B
:1020500049F168949038810561F08038BFEF9B07A3
:1020600041F099234AF5FF3FE1053105210519F1BA
:10207000E8940894E795D901AA2329F4AB2FBE2F41
:10208000F85FD0F310C0FF5F70F4A695E0F7F73962
:1020900050F019F0FF3A38F49F779F930DD00F90CE
:1020A00007FC9058089546F00C948C0E60E070E0A8
:1020B00080E89FE308954FE79F775F934F933F93A7
:1020C0002F930E94660F2F913F914F915F910E9435
:1020D000AE0F0C94EA109F930E94DA0E0F9007FC4B
:1020E000EE5F0C94140F19F416F40C948C0E0C94EF
:1020F0001C110E94300FB8F39923C9F3B6F39F5710
:10210000550B87FF0E942A110024A0E640EA9001A7
:1021100080585695979528F4805C660F771F881F26
:1021200020F026173707480730F4621B730B840B27
:10213000202931294A2BA69517940794202531256B
:102140004A2758F7660F771F881F20F02617370792
:10215000480730F4620B730B840B200D311D411DB9
:10216000A09581F7B901842F9158880F969587958E
:1021700008959B01AC010C94AE0FDF93D92F0E9400
:10218000DA0EE695D7952AED3FE049E45FE3B33AEE
:102190006207730784079507D7953AF0A2EA49ECDE
:1021A00090680E94EA0C0E94030FE9E4F1E00E94AB
:1021B000B60EDD0F13F00E94560FDD0F0BF4905892
:1021C000DF91089529F416F00C94860E0C944A0FB2
:1021D0000C948C0E0E94300FA8F39638A0F707F8E5
:1021E0000F92E8942BE33AEA48EB5FE70E94C40FB2
:1021F0000F920F920F924DB75EB70F920E946B1124
:10220000ECE6F1E00E948F0E4F915F91EF91FF910C
:10221000E595EE1FFF1F49F0FE57E0684427EE0FDB
:10222000441FFA95E1F74195550B0E9435110F9027
:1022300007FE0C94560F08959F3F31F0915020F403
:10224000879577956795B795880F911D9695879592
:1022500097F9089591505040660F771F881FD2F765
:1022600008950C94860E0C941C110E94300FD8F324
:102270009923C9F3940F511DA3F39150504094F04A
:1022800059F0882332F0660F771F881F9150504015
:10229000C1F79E3F51052CF7880F911D96958795A4
:1022A00097F908955F3FACF0983E9CF0BB27869568
:1022B00077956795B79508F4B1609395C1F7BB0F13
:1022C00058F711F460FFE8CF6F5F7F4F8F4F9F4F3C
:1022D000E3CF0C944B0FFA01DC01AA0FBB1F9B014B
:1022E000AC01BF5728F4222733274427507820C059
:1022F000B75190F4AB2F0024469537952795011CD4
:10230000A395D2F3002071F0220F331F441FB39521
:10231000DAF30ED00C94D20C61307105A0E88A0774
:10232000B94630F49B01AC0166277727882790785F
:10233000309621F020833183428353830895EE0F3A
:10234000FF1F0590F491E02D0994EF920F931F93D6
:10235000CF93DF93E80134E047FD34E1042E000C15
:10236000550B57FF03C0519541955109E32E022F9C
:10237000242FAE010E94DB11CE01DF91CF911F917E
:102380000F91EF900895662777270C943D1385FDF4
:102390000C945315806291110C94531581568A51F7
:1023A000D8F70895FB01DC0102C005900D92415061
:1023B0005040D8F70895A9E0B0E0E1EEF1E10C94C7
:1023C00088156A01F22EB02E102F0BE30B1508F4BE
:1023D0001BE31F5F012F27E0AE014F5F5F4F0E949D
:1023E0007B14BC018981982F99709130C9F19BE2CF
:1023F000E1FC04C09E2D9170E0FC90E25E2D5071D6
:10240000E82FE87083FF48C083E0911184E0EF2D4E
:10241000E81B8F1508F0E0E0552371F1992319F0BE
:10242000D6019D936D01C6010396E2FE29C02EE4FC
:10243000D6012C9331E411963C93119712962C936C
:102440002E2F382F492F50E221111FC0E80FF92FEE
:10245000F11D10828EEF9FEF2996ECE00C94A415ED
:102460009DE2CCCFD9014D9381509D018111FACFCE
:10247000CE0ED11CE0E0D2CF8E2F960140E2F6CFF7
:102480002EE6D6012C9331E6D6CFA32FB42F5D9341
:1024900021503A2F4B2FD8CF482F447082FF41C094
:1024A00083E0911184E08F1510F4EF2DE81B552384
:1024B00059F1992319F0D6019D936D01C601039638
:1024C000E2FE26C029E4D6012C932EE411962C932B
:1024D000119726E412962C932E2F382F492F50E275
:1024E000222309F4B3CFA32FB42F5D9321503A2FA9
:1024F0004B2FF6CFD9014D9381509D018111FACF19
:10250000CE0ED11CE0E0D5CF8E2F960140E2F6CF63
:1025100029E6D6012C932EE611962C93119726E6E8
:10252000D9CF9B0177FF02C030E020E0A1E0B0E00E
:10253000911102C0B0E0A0E0F9013196AE0FBF1FCB
:102540008B2C912CBB20F1F05401EFEFAE1ABE0A98
:10255000AA0DBB1DFA161B0619F014F04F2D4A1BCD
:10256000511145C0E3FC08C07601A42FB0E2A111CF
:102570000CC0C40ED11C40E091113BC0D601942F79
:1025800050E30AC0B12CA12CE3CFF701B1937F0136
:10259000A150EDCF5D9391509111FCCFC40ED11C91
:1025A00040E02DC001E03AC050E354C06217730709
:1025B00039F4A63320F4A53319F4B11101C051E365
:1025C000D6015C93242F382F592F60E2211108C0C7
:1025D000480F592F511DFA01108290E080E03CCF46
:1025E000E32FF52F619321503E2F5F2FEFCF9923DB
:1025F00031F0D6019D936D01552309F4BFCF012F12
:10260000060FAA81B82FB07184FF03C0A13309F46B
:10261000015010163CF6093008F008E0FB01E01B01
:10262000F1098F01EE24FF24E818F9088EE2B82E94
:10263000621773070CF4B8CF021713070CF0B4CF6E
:10264000FB01E21BF30B81E090E08C0F9D1FE80F74
:10265000F91F518121503109C60101962E153F0500
:102660000CF4A4CFF60150832F3F320721F4C601AA
:102670000296F601B1826C01DBCFB0E0A0E0E3E4AA
:10268000F3E10C9488157C016B016115710519F05B
:10269000FB0191838083E7010991802F90E00E94E4
:1026A00056155C01892BB1F50D32B1F50881E701B2
:1026B000229611E07E01F1E0EF1AF10843E050E0CC
:1026C0006CE971E0C7010E945F15892B61F57E01FD
:1026D00082E0E80EF11C45E050E067E971E0C701D7
:1026E0000E945F15892B21F47E0197E0E90EF11C11
:1026F000C114D10419F0F601F182E08260E070E0CB
:1027000080E89FE7112309F4F1C060E070E080E801
:102710009FEFECC07E01BFCF0B3219F40881E701B7
:10272000229610E0C7CF43E050E064E971E0C701B2
:102730000E945F15892B61F4C114D10421F0229607
:10274000F601D183C08360E070E080EC9FE7CEC0EB
:10275000F12CE12C20E030E0A901F0EDF00FFA308F
:1027600058F5E12FE260812F887012FF08C08111B7
:1027700003C0FFEFEF1AFF0A09911E2FEECF882347
:1027800019F081E0E81AF108A5E0B0E00E947715A1
:102790009B01AC01220F331F441F551F2F0F311D0A
:1027A000411D511D283999E93907490799E1590710
:1027B00018F3E12FE660E0CFFE3F29F413FD3AC0A5
:1027C000E12FE860D9CF0F7D0534A1F588818D32E6
:1027D00041F41061BE016E5F7F4F8981E2E0F0E05D
:1027E00007C0BE018B32B9F36F5F7F4FE1E0F0E0CD
:1027F0008053EB01CE1BDF0B8A30E0F4E0E8AE162D
:10280000ECE0BE065CF4F501EE0FFF1FEE0FFF1FBC
:10281000AE0EBF1EAA0CBB1CA80EB11CEB01899109
:1028200080538A3090F114FF03C0B194A194B10891
:10283000EA0CFB1C11FF07C0C114D10421F0219741
:10284000F601D183C083CA01B9010E94050E13703D
:10285000133009F490584B015C0120E030E0A901ED
:102860000E94890D882309F43FC0CBECD1E0F7FE2C
:1028700005C0F194E194F108C3EBD1E06E01F8E1F9
:10288000CF1AD10800E210E00FC0BE01B7CFFE01A1
:102890002591359145915491E01AF10AC501B40191
:1028A0000E94AE0F4B015C01D501C401E016F10698
:1028B00074F7249715950795CC15DD05A9F78A2F90
:1028C000880F8B2F881F8F3F49F020E030E0A9014F
:1028D000C501B4010E94890D811106C082E290E019
:1028E0009093B2038093B103C501B401CDB7DEB7B5
:1028F000ECE00C94A415283008F027E03327DA0127
:10290000990F311D87FD916000966105710539F4BD
:1029100032602E5F3D9330E32A95E1F708959F3FA3
:1029200030F080387105610509F03C5F3C5F3D93F4
:10293000913008F08068911DDF93CF931F930F9320
:10294000FF92EF92192F987F9695E92F969596957D
:10295000E90FFF27E75DFD4F99273327EE24FF247A
:10296000A701E70105900894079428F4360FE71EA5
:10297000F81E491F511D660F771F881F991F069467
:10298000A1F70590079428F4E70EF81E491F561F7B
:10299000C11D770F881F991F661F0694A1F7059028
:1029A000079428F4F80E491F561FC71FD11D880F22
:1029B000991F661F771F0694A1F70590079420F4CE
:1029C000490F561FC71FD81F990F661F771F881FF3
:1029D0000694A9F784911095177041F0D695C79584
:1029E00057954795F794E7941A95C1F7EFECF1E006
:1029F00068941590159135916591959105907FE2B8
:102A00007395E118F10A430B560BC90BD009C0F7B7
:102A1000E10CF11E431F561FC91FD01D7EF47033F9
:102A200011F48A95E6CFE894015030F0080F0AF4CB
:102A30000027021708F4202F2395022F7A3328F05D
:102A400079E37D932A95E9F710C07D932A9589F65D
:102A5000069497956795379517951794E118F10A9D
:102A6000430B560BC90BD00998F023957E917395B3
:102A70007A3308F070E37C932013B8F77E9170618D
:102A80007D9330F0839571E37D9370E32A95E1F7B0
:102A90001124EF90FF900F911F91CF91DF91992713
:102AA00087FD9095089599278827089591110C9492
:102AB0005315803219F089508550C8F70895FB01ED
:102AC000DC014150504088F08D9181341CF08B35F1
:102AD0000CF4805E659161341CF06B350CF4605E23
:102AE000861B611171F3990B0895881BFCCF0E941E
:102AF000B915A59F900DB49F900DA49F800D911DB9
:102B0000112408952F923F924F925F926F927F927D
:102B10008F929F92AF92BF92CF92DF92EF92FF92ED
:102B20000F931F93CF93DF93CDB7DEB7CA1BDB0B99
:102B30000FB6F894DEBF0FBECDBF09942A8839883E
:102B400048885F846E847D848C849B84AA84B98445
:102B5000C884DF80EE80FD800C811B81AA81B98151
:102B6000CE0FD11D0FB6F894DEBF0FBECDBFED0165
:102B70000895A29FB001B39FC001A39F700D811D56
:102B80001124911DB29F700D811D1124911D089576
:102B9000F894FFCF0F045F0466048904AC04CF04EB
:102BA000EA040905220432043D0448041C053807E0
:102BB000B606AE06A6063607B406AC06A406E406BC
:102BC000B206AA06A206B806B006A8069C06440AE3
:102BD0003A0AFA09EE09420A360AF809E309400AF4
:102BE000020AF609A1093E0AFE09F2099B097C0ABC
:102BF000F20AC40A820A7A0A740A9C0A800A780ACB
:102C0000720A840A7E0A760A670AF20AF20AF20A4D
:102C1000F20AF20AF20AF20AF20AF20ADE0AF20AE8
:022C2000C60AE2
:082C2200FF030303020201009D
:00000001FF
